{
  "contractName": "TimelockFactory",
  "abi": [
    {
      "inputs": [
        {
          "internalType": "address payable",
          "name": "_timelockContractAddress",
          "type": "address"
        }
      ],
      "stateMutability": "nonpayable",
      "type": "constructor"
    },
    {
      "anonymous": false,
      "inputs": [
        {
          "indexed": true,
          "internalType": "address",
          "name": "_wallet",
          "type": "address"
        },
        {
          "indexed": true,
          "internalType": "address",
          "name": "_owner",
          "type": "address"
        },
        {
          "indexed": false,
          "internalType": "string",
          "name": "_description",
          "type": "string"
        },
        {
          "indexed": false,
          "internalType": "uint256",
          "name": "_createdAt",
          "type": "uint256"
        }
      ],
      "name": "WalletCreatedEvent",
      "type": "event"
    },
    {
      "inputs": [],
      "name": "owner",
      "outputs": [
        {
          "internalType": "address",
          "name": "",
          "type": "address"
        }
      ],
      "stateMutability": "view",
      "type": "function"
    },
    {
      "stateMutability": "payable",
      "type": "receive"
    },
    {
      "inputs": [],
      "name": "getWallets",
      "outputs": [
        {
          "internalType": "address[]",
          "name": "",
          "type": "address[]"
        }
      ],
      "stateMutability": "view",
      "type": "function"
    },
    {
      "inputs": [
        {
          "internalType": "string",
          "name": "_description",
          "type": "string"
        }
      ],
      "name": "newTimeLockedWallet",
      "outputs": [
        {
          "internalType": "address",
          "name": "",
          "type": "address"
        }
      ],
      "stateMutability": "nonpayable",
      "type": "function"
    },
    {
      "inputs": [
        {
          "internalType": "bytes32",
          "name": "_txId",
          "type": "bytes32"
        }
      ],
      "name": "transferFunds",
      "outputs": [],
      "stateMutability": "nonpayable",
      "type": "function"
    }
  ],
  "bytecode": "0x608060405234801561001057600080fd5b5060405162005130380380620051308339818101604052810190610034919061011e565b806000806101000a81548173ffffffffffffffffffffffffffffffffffffffff021916908373ffffffffffffffffffffffffffffffffffffffff16021790555033600160006101000a81548173ffffffffffffffffffffffffffffffffffffffff021916908373ffffffffffffffffffffffffffffffffffffffff1602179055505061014b565b600080fd5b600073ffffffffffffffffffffffffffffffffffffffff82169050919050565b60006100eb826100c0565b9050919050565b6100fb816100e0565b811461010657600080fd5b50565b600081519050610118816100f2565b92915050565b600060208284031215610134576101336100bb565b5b600061014284828501610109565b91505092915050565b614fd5806200015b6000396000f3fe608060405260043610620000485760003560e01c8062ab9cf714620000555780638da5cb5b1462000083578063db7a460514620000b3578063f2bba5c514620000e35762000050565b366200005057005b600080fd5b3480156200006257600080fd5b506200008160048036038101906200007b9190620005d6565b62000127565b005b3480156200009057600080fd5b506200009b62000334565b604051620000aa91906200064d565b60405180910390f35b348015620000c057600080fd5b50620000cb6200035a565b604051620000da919062000738565b60405180910390f35b348015620000f057600080fd5b506200010f6004803603810190620001099190620008be565b62000427565b6040516200011e91906200064d565b60405180910390f35b60008054906101000a900473ffffffffffffffffffffffffffffffffffffffff1673ffffffffffffffffffffffffffffffffffffffff163373ffffffffffffffffffffffffffffffffffffffff1614620001b8576040517f08c379a0000000000000000000000000000000000000000000000000000000008152600401620001af9062000996565b60405180910390fd5b60008060008060008060008060009054906101000a900473ffffffffffffffffffffffffffffffffffffffff1673ffffffffffffffffffffffffffffffffffffffff1663d3fa06fa896040518263ffffffff1660e01b81526004016200021f9190620009c9565b600060405180830381865afa1580156200023d573d6000803e3d6000fd5b505050506040513d6000823e3d601f19601f8201168201806040525081019062000268919062000b5a565b965096509650965096509650965060008473ffffffffffffffffffffffffffffffffffffffff16846040516200029e9062000c61565b60006040518083038185875af1925050503d8060008114620002dd576040519150601f19603f3d011682016040523d82523d6000602084013e620002e2565b606091505b505090508062000329576040517f08c379a0000000000000000000000000000000000000000000000000000000008152600401620003209062000cc8565b60405180910390fd5b505050505050505050565b600160009054906101000a900473ffffffffffffffffffffffffffffffffffffffff1681565b6060600260003373ffffffffffffffffffffffffffffffffffffffff1673ffffffffffffffffffffffffffffffffffffffff1681526020019081526020016000208054806020026020016040519081016040528092919081815260200182805480156200041d57602002820191906000526020600020905b8160009054906101000a900473ffffffffffffffffffffffffffffffffffffffff1673ffffffffffffffffffffffffffffffffffffffff1681526020019060010190808311620003d2575b5050505050905090565b60008082336040516200043a9062000579565b6200044792919062000d36565b604051809103906000f08015801562000464573d6000803e3d6000fd5b509050600260003373ffffffffffffffffffffffffffffffffffffffff1673ffffffffffffffffffffffffffffffffffffffff168152602001908152602001600020819080600181540180825580915050600190039060005260206000200160009091909190916101000a81548173ffffffffffffffffffffffffffffffffffffffff021916908373ffffffffffffffffffffffffffffffffffffffff1602179055503373ffffffffffffffffffffffffffffffffffffffff168173ffffffffffffffffffffffffffffffffffffffff167fbb858db47e95f5d7cf47c58b1841c9cc6f65d4e777ac8388784a54b0603a37b385426040516200056892919062000d7b565b60405180910390a380915050919050565b6141f08062000db083390190565b6000604051905090565b600080fd5b600080fd5b6000819050919050565b620005b0816200059b565b8114620005bc57600080fd5b50565b600081359050620005d081620005a5565b92915050565b600060208284031215620005ef57620005ee62000591565b5b6000620005ff84828501620005bf565b91505092915050565b600073ffffffffffffffffffffffffffffffffffffffff82169050919050565b6000620006358262000608565b9050919050565b620006478162000628565b82525050565b60006020820190506200066460008301846200063c565b92915050565b600081519050919050565b600082825260208201905092915050565b6000819050602082019050919050565b620006a18162000628565b82525050565b6000620006b5838362000696565b60208301905092915050565b6000602082019050919050565b6000620006db826200066a565b620006e7818562000675565b9350620006f48362000686565b8060005b838110156200072b5781516200070f8882620006a7565b97506200071c83620006c1565b925050600181019050620006f8565b5085935050505092915050565b60006020820190508181036000830152620007548184620006ce565b905092915050565b600080fd5b600080fd5b6000601f19601f8301169050919050565b7f4e487b7100000000000000000000000000000000000000000000000000000000600052604160045260246000fd5b620007b18262000766565b810181811067ffffffffffffffff82111715620007d357620007d262000777565b5b80604052505050565b6000620007e862000587565b9050620007f68282620007a6565b919050565b600067ffffffffffffffff82111562000819576200081862000777565b5b620008248262000766565b9050602081019050919050565b82818337600083830152505050565b6000620008576200085184620007fb565b620007dc565b90508281526020810184848401111562000876576200087562000761565b5b6200088384828562000831565b509392505050565b600082601f830112620008a357620008a26200075c565b5b8135620008b584826020860162000840565b91505092915050565b600060208284031215620008d757620008d662000591565b5b600082013567ffffffffffffffff811115620008f857620008f762000596565b5b62000906848285016200088b565b91505092915050565b600082825260208201905092915050565b7f4f6e6c792054696d656c6f636b2063616e20616363657373207468697320726560008201527f736f757263650000000000000000000000000000000000000000000000000000602082015250565b60006200097e6026836200090f565b91506200098b8262000920565b604082019050919050565b60006020820190508181036000830152620009b1816200096f565b9050919050565b620009c3816200059b565b82525050565b6000602082019050620009e06000830184620009b8565b92915050565b600081519050620009f781620005a5565b92915050565b60005b8381101562000a1d57808201518184015260208101905062000a00565b8381111562000a2d576000848401525b50505050565b600062000a4a62000a4484620007fb565b620007dc565b90508281526020810184848401111562000a695762000a6862000761565b5b62000a76848285620009fd565b509392505050565b600082601f83011262000a965762000a956200075c565b5b815162000aa884826020860162000a33565b91505092915050565b62000abc8162000628565b811462000ac857600080fd5b50565b60008151905062000adc8162000ab1565b92915050565b6000819050919050565b62000af78162000ae2565b811462000b0357600080fd5b50565b60008151905062000b178162000aec565b92915050565b60008115159050919050565b62000b348162000b1d565b811462000b4057600080fd5b50565b60008151905062000b548162000b29565b92915050565b600080600080600080600060e0888a03121562000b7c5762000b7b62000591565b5b600062000b8c8a828b01620009e6565b975050602088015167ffffffffffffffff81111562000bb05762000baf62000596565b5b62000bbe8a828b0162000a7e565b965050604062000bd18a828b0162000acb565b955050606062000be48a828b0162000acb565b945050608062000bf78a828b0162000b06565b93505060a062000c0a8a828b0162000b06565b92505060c062000c1d8a828b0162000b43565b91505092959891949750929550565b600081905092915050565b50565b600062000c4960008362000c2c565b915062000c568262000c37565b600082019050919050565b600062000c6e8262000c3a565b9150819050919050565b7f4661696c656420746f2073656e64204574686572000000000000000000000000600082015250565b600062000cb06014836200090f565b915062000cbd8262000c78565b602082019050919050565b6000602082019050818103600083015262000ce38162000ca1565b9050919050565b600081519050919050565b600062000d028262000cea565b62000d0e81856200090f565b935062000d20818560208601620009fd565b62000d2b8162000766565b840191505092915050565b6000604082019050818103600083015262000d52818562000cf5565b905062000d6360208301846200063c565b9392505050565b62000d758162000ae2565b82525050565b6000604082019050818103600083015262000d97818562000cf5565b905062000da8602083018462000d6a565b939250505056fe60806040523480156200001157600080fd5b50604051620041f0380380620041f0833981810160405281019062000037919062000293565b816001908162000048919062000544565b50806000806101000a81548173ffffffffffffffffffffffffffffffffffffffff021916908373ffffffffffffffffffffffffffffffffffffffff16021790555050506200062b565b6000604051905090565b600080fd5b600080fd5b600080fd5b600080fd5b6000601f19601f8301169050919050565b7f4e487b7100000000000000000000000000000000000000000000000000000000600052604160045260246000fd5b620000fa82620000af565b810181811067ffffffffffffffff821117156200011c576200011b620000c0565b5b80604052505050565b60006200013162000091565b90506200013f8282620000ef565b919050565b600067ffffffffffffffff821115620001625762000161620000c0565b5b6200016d82620000af565b9050602081019050919050565b60005b838110156200019a5780820151818401526020810190506200017d565b83811115620001aa576000848401525b50505050565b6000620001c7620001c18462000144565b62000125565b905082815260208101848484011115620001e657620001e5620000aa565b5b620001f38482856200017a565b509392505050565b600082601f830112620002135762000212620000a5565b5b815162000225848260208601620001b0565b91505092915050565b600073ffffffffffffffffffffffffffffffffffffffff82169050919050565b60006200025b826200022e565b9050919050565b6200026d816200024e565b81146200027957600080fd5b50565b6000815190506200028d8162000262565b92915050565b60008060408385031215620002ad57620002ac6200009b565b5b600083015167ffffffffffffffff811115620002ce57620002cd620000a0565b5b620002dc85828601620001fb565b9250506020620002ef858286016200027c565b9150509250929050565b600081519050919050565b7f4e487b7100000000000000000000000000000000000000000000000000000000600052602260045260246000fd5b600060028204905060018216806200034c57607f821691505b60208210810362000362576200036162000304565b5b50919050565b60008190508160005260206000209050919050565b60006020601f8301049050919050565b600082821b905092915050565b600060088302620003cc7fffffffffffffffffffffffffffffffffffffffffffffffffffffffffffffffff826200038d565b620003d886836200038d565b95508019841693508086168417925050509392505050565b6000819050919050565b6000819050919050565b6000620004256200041f6200041984620003f0565b620003fa565b620003f0565b9050919050565b6000819050919050565b620004418362000404565b6200045962000450826200042c565b8484546200039a565b825550505050565b600090565b6200047062000461565b6200047d81848462000436565b505050565b5b81811015620004a5576200049960008262000466565b60018101905062000483565b5050565b601f821115620004f457620004be8162000368565b620004c9846200037d565b81016020851015620004d9578190505b620004f1620004e8856200037d565b83018262000482565b50505b505050565b600082821c905092915050565b60006200051960001984600802620004f9565b1980831691505092915050565b600062000534838362000506565b9150826002028217905092915050565b6200054f82620002f9565b67ffffffffffffffff8111156200056b576200056a620000c0565b5b62000577825462000333565b62000584828285620004a9565b600060209050601f831160018114620005bc5760008415620005a7578287015190505b620005b3858262000526565b86555062000623565b601f198416620005cc8662000368565b60005b82811015620005f657848901518255600182019150602085019450602081019050620005cf565b8683101562000616578489015162000612601f89168262000506565b8355505b6001600288020188555050505b505050505050565b613bb5806200063b6000396000f3fe6080604052600436106101025760003560e01c80639cac9ee611610095578063c4d252f511610064578063c4d252f514610349578063d283238b14610372578063d3fa06fa146103b0578063fb580b76146103f3578063ff1529e71461040f57610109565b80639cac9ee61461029a5780639f81aed7146102b6578063baf61ac3146102e1578063c1a287e21461031e57610109565b80636b149d87116100d15780636b149d87146101dc5780637284e4161461020757806385d3ca09146102325780638da5cb5b1461026f57610109565b80630dc051f81461010e578063228250c91461014b5780634125ff90146101885780634f4ac9a4146101b357610109565b3661010957005b600080fd5b34801561011a57600080fd5b5061013560048036038101906101309190612599565b61043f565b60405161014291906125e1565b60405180910390f35b34801561015757600080fd5b50610172600480360381019061016d9190612599565b6104b9565b60405161017f91906125e1565b60405180910390f35b34801561019457600080fd5b5061019d6104d9565b6040516101aa9190612615565b60405180910390f35b3480156101bf57600080fd5b506101da60048036038101906101d591906126f3565b6104e0565b005b3480156101e857600080fd5b506101f16109c3565b6040516101fe919061299a565b60405180910390f35b34801561021357600080fd5b5061021c610bd6565b6040516102299190612a06565b60405180910390f35b34801561023e57600080fd5b50610259600480360381019061025491906126f3565b610c64565b6040516102669190612a37565b60405180910390f35b34801561027b57600080fd5b50610284610c9d565b6040516102919190612a61565b60405180910390f35b6102b460048036038101906102af9190612bd8565b610cc1565b005b3480156102c257600080fd5b506102cb611198565b6040516102d89190612615565b60405180910390f35b3480156102ed57600080fd5b5061030860048036038101906103039190612c5b565b61119d565b6040516103159190612a37565b60405180910390f35b34801561032a57600080fd5b506103336111d9565b6040516103409190612615565b60405180910390f35b34801561035557600080fd5b50610370600480360381019061036b9190612599565b6111e0565b005b34801561037e57600080fd5b5061039960048036038101906103949190612599565b611399565b6040516103a7929190612d8e565b60405180910390f35b3480156103bc57600080fd5b506103d760048036038101906103d29190612599565b611665565b6040516103ea9796959493929190612dbe565b60405180910390f35b61040d60048036038101906104089190612e34565b61177c565b005b610429600480360381019061042491906126f3565b611e0b565b6040516104369190612f20565b60405180910390f35b60008073ffffffffffffffffffffffffffffffffffffffff166005600084815260200190815260200160002060030160009054906101000a900473ffffffffffffffffffffffffffffffffffffffff1673ffffffffffffffffffffffffffffffffffffffff16146104b357600190506104b4565b5b919050565b60046020528060005260406000206000915054906101000a900460ff1681565b6202a30081565b3373ffffffffffffffffffffffffffffffffffffffff1660008054906101000a900473ffffffffffffffffffffffffffffffffffffffff1673ffffffffffffffffffffffffffffffffffffffff161461056e576040517ff7251ccf00000000000000000000000000000000000000000000000000000000815260040161056590612fb4565b60405180910390fd5b6000600360008581526020019081526020016000206040518060e0016040529081600082015481526020016001820180546105a890613003565b80601f01602080910402602001604051908101604052809291908181526020018280546105d490613003565b80156106215780601f106105f657610100808354040283529160200191610621565b820191906000526020600020905b81548152906001019060200180831161060457829003601f168201915b505050505081526020016002820160009054906101000a900473ffffffffffffffffffffffffffffffffffffffff1673ffffffffffffffffffffffffffffffffffffffff1673ffffffffffffffffffffffffffffffffffffffff1681526020016003820160009054906101000a900473ffffffffffffffffffffffffffffffffffffffff1673ffffffffffffffffffffffffffffffffffffffff1673ffffffffffffffffffffffffffffffffffffffff16815260200160048201548152602001600582015481526020016006820160009054906101000a900460ff1615151515815250509050600061071586868686610c64565b9050600073ffffffffffffffffffffffffffffffffffffffff166005600083815260200190815260200160002060030160009054906101000a900473ffffffffffffffffffffffffffffffffffffffff1673ffffffffffffffffffffffffffffffffffffffff16146107bc576040517f08c379a00000000000000000000000000000000000000000000000000000000081526004016107b390613080565b60405180910390fd5b600a426107c991906130cf565b8260a0015110806107eb57506202a300426107e491906130cf565b8260a00151115b1561085f57600a426107fd91906130cf565b8260a00151108061081f57506202a3004261081891906130cf565b8260a00151115b61085e576040517f08c379a000000000000000000000000000000000000000000000000000000000815260040161085590613171565b60405180910390fd5b5b8160056000838152602001908152602001600020600082015181600001556020820151816001019081610892919061333d565b5060408201518160020160006101000a81548173ffffffffffffffffffffffffffffffffffffffff021916908373ffffffffffffffffffffffffffffffffffffffff16021790555060608201518160030160006101000a81548173ffffffffffffffffffffffffffffffffffffffff021916908373ffffffffffffffffffffffffffffffffffffffff1602179055506080820151816004015560a0820151816005015560c08201518160060160006101000a81548160ff0219169083151502179055509050508573ffffffffffffffffffffffffffffffffffffffff16817f4762453ff07afa9b0dc3d8842a3bb2c3bada1fec4956fc404dbcc3c7ee45457e8460600151856080015188888860a001516040516109b395949392919061343c565b60405180910390a3505050505050565b6060600260003373ffffffffffffffffffffffffffffffffffffffff1673ffffffffffffffffffffffffffffffffffffffff168152602001908152602001600020805480602002602001604051908101604052809291908181526020016000905b82821015610bcd57838290600052602060002090600702016040518060e001604052908160008201548152602001600182018054610a6190613003565b80601f0160208091040260200160405190810160405280929190818152602001828054610a8d90613003565b8015610ada5780601f10610aaf57610100808354040283529160200191610ada565b820191906000526020600020905b815481529060010190602001808311610abd57829003601f168201915b505050505081526020016002820160009054906101000a900473ffffffffffffffffffffffffffffffffffffffff1673ffffffffffffffffffffffffffffffffffffffff1673ffffffffffffffffffffffffffffffffffffffff1681526020016003820160009054906101000a900473ffffffffffffffffffffffffffffffffffffffff1673ffffffffffffffffffffffffffffffffffffffff1673ffffffffffffffffffffffffffffffffffffffff16815260200160048201548152602001600582015481526020016006820160009054906101000a900460ff16151515158152505081526020019060010190610a24565b50505050905090565b60018054610be390613003565b80601f0160208091040260200160405190810160405280929190818152602001828054610c0f90613003565b8015610c5c5780601f10610c3157610100808354040283529160200191610c5c565b820191906000526020600020905b815481529060010190602001808311610c3f57829003601f168201915b505050505081565b600084848484604051602001610c7d949392919061348a565b604051602081830303815290604052805190602001209050949350505050565b60008054906101000a900473ffffffffffffffffffffffffffffffffffffffff1681565b80610ccb816123c7565b610d0a576040517f08c379a0000000000000000000000000000000000000000000000000000000008152600401610d019061353c565b60405180910390fd5b823373ffffffffffffffffffffffffffffffffffffffff163111610d63576040517f08c379a0000000000000000000000000000000000000000000000000000000008152600401610d5a906135a8565b60405180910390fd5b60003073ffffffffffffffffffffffffffffffffffffffff1684604051610d89906135f9565b60006040518083038185875af1925050503d8060008114610dc6576040519150601f19603f3d011682016040523d82523d6000602084013e610dcb565b606091505b5050905080610e0f576040517f08c379a0000000000000000000000000000000000000000000000000000000008152600401610e069061365a565b60405180910390fd5b6000610e1e873388888861119d565b9050600260003373ffffffffffffffffffffffffffffffffffffffff1673ffffffffffffffffffffffffffffffffffffffff1681526020019081526020016000206040518060e001604052808381526020018981526020013373ffffffffffffffffffffffffffffffffffffffff1681526020018873ffffffffffffffffffffffffffffffffffffffff168152602001878152602001868152602001600015158152509080600181540180825580915050600190039060005260206000209060070201600090919091909150600082015181600001556020820151816001019081610f09919061333d565b5060408201518160020160006101000a81548173ffffffffffffffffffffffffffffffffffffffff021916908373ffffffffffffffffffffffffffffffffffffffff16021790555060608201518160030160006101000a81548173ffffffffffffffffffffffffffffffffffffffff021916908373ffffffffffffffffffffffffffffffffffffffff1602179055506080820151816004015560a0820151816005015560c08201518160060160006101000a81548160ff02191690831515021790555050506040518060e001604052808281526020018881526020013373ffffffffffffffffffffffffffffffffffffffff1681526020018773ffffffffffffffffffffffffffffffffffffffff1681526020018681526020018581526020016000151581525060036000838152602001908152602001600020600082015181600001556020820151816001019081611062919061333d565b5060408201518160020160006101000a81548173ffffffffffffffffffffffffffffffffffffffff021916908373ffffffffffffffffffffffffffffffffffffffff16021790555060608201518160030160006101000a81548173ffffffffffffffffffffffffffffffffffffffff021916908373ffffffffffffffffffffffffffffffffffffffff1602179055506080820151816004015560a0820151816005015560c08201518160060160006101000a81548160ff0219169083151502179055509050508573ffffffffffffffffffffffffffffffffffffffff163373ffffffffffffffffffffffffffffffffffffffff167f63fcec50a0d1188958b021607e6cfb13657ac9366d87e6afc4b35cf96486b698878760405161118792919061367a565b60405180910390a350505050505050565b600a81565b600085858585856040516020016111b89594939291906136a3565b60405160208183030381529060405280519060200120905095945050505050565b6206978081565b3373ffffffffffffffffffffffffffffffffffffffff1660008054906101000a900473ffffffffffffffffffffffffffffffffffffffff1673ffffffffffffffffffffffffffffffffffffffff161461126e576040517ff7251ccf00000000000000000000000000000000000000000000000000000000815260040161126590612fb4565b60405180910390fd5b60006005600083815260200190815260200160002060040154036112c957806040517f0995c9d50000000000000000000000000000000000000000000000000000000081526004016112c09190612a37565b60405180910390fd5b600560008281526020019081526020016000206000808201600090556001820160006112f59190612484565b6002820160006101000a81549073ffffffffffffffffffffffffffffffffffffffff02191690556003820160006101000a81549073ffffffffffffffffffffffffffffffffffffffff0219169055600482016000905560058201600090556006820160006101000a81549060ff02191690555050807f305d0bbad881e42a0c7ad622d46b3de152139e1f7b0322edf03a70878db9f11460405160405180910390a250565b6113a16124c4565b600080600090505b600260003373ffffffffffffffffffffffffffffffffffffffff1673ffffffffffffffffffffffffffffffffffffffff1681526020019081526020016000208054905081101561165e5783600260003373ffffffffffffffffffffffffffffffffffffffff1673ffffffffffffffffffffffffffffffffffffffff1681526020019081526020016000208281548110611445576114446136fd565b5b9060005260206000209060070201600001540361164b57600260003373ffffffffffffffffffffffffffffffffffffffff1673ffffffffffffffffffffffffffffffffffffffff16815260200190815260200160002081815481106114ad576114ac6136fd565b5b906000526020600020906007020181816040518060e0016040529081600082015481526020016001820180546114e290613003565b80601f016020809104026020016040519081016040528092919081815260200182805461150e90613003565b801561155b5780601f106115305761010080835404028352916020019161155b565b820191906000526020600020905b81548152906001019060200180831161153e57829003601f168201915b505050505081526020016002820160009054906101000a900473ffffffffffffffffffffffffffffffffffffffff1673ffffffffffffffffffffffffffffffffffffffff1673ffffffffffffffffffffffffffffffffffffffff1681526020016003820160009054906101000a900473ffffffffffffffffffffffffffffffffffffffff1673ffffffffffffffffffffffffffffffffffffffff1673ffffffffffffffffffffffffffffffffffffffff16815260200160048201548152602001600582015481526020016006820160009054906101000a900460ff16151515158152505091509250925050611660565b80806116569061372c565b9150506113a9565b505b915091565b600560205280600052604060002060009150905080600001549080600101805461168e90613003565b80601f01602080910402602001604051908101604052809291908181526020018280546116ba90613003565b80156117075780601f106116dc57610100808354040283529160200191611707565b820191906000526020600020905b8154815290600101906020018083116116ea57829003601f168201915b5050505050908060020160009054906101000a900473ffffffffffffffffffffffffffffffffffffffff16908060030160009054906101000a900473ffffffffffffffffffffffffffffffffffffffff16908060040154908060050154908060060160009054906101000a900460ff16905087565b80611786816123c7565b6117c5576040517f08c379a00000000000000000000000000000000000000000000000000000000081526004016117bc9061353c565b60405180910390fd5b6000806117d188611399565b9150915060006117e4883389898961119d565b9050600083608001510361182f57886040517fd4487bd70000000000000000000000000000000000000000000000000000000081526004016118269190612a37565b60405180910390fd5b82608001518611156119645782608001518661184b9190613774565b3373ffffffffffffffffffffffffffffffffffffffff1631116118a3576040517f08c379a000000000000000000000000000000000000000000000000000000000815260040161189a906137f4565b60405180910390fd5b60003073ffffffffffffffffffffffffffffffffffffffff168460800151886118cc9190613774565b6040516118d8906135f9565b60006040518083038185875af1925050503d8060008114611915576040519150601f19603f3d011682016040523d82523d6000602084013e61191a565b606091505b505090508061195e576040517f08c379a00000000000000000000000000000000000000000000000000000000081526004016119559061365a565b60405180910390fd5b5061198b565b826080015186101561198a57611989338785608001516119849190613774565b6123d3565b5b5b6040518060e001604052806119a38a338b8b8b61119d565b81526020018981526020013373ffffffffffffffffffffffffffffffffffffffff1681526020018873ffffffffffffffffffffffffffffffffffffffff16815260200187815260200186815260200160001515815250600260003373ffffffffffffffffffffffffffffffffffffffff1673ffffffffffffffffffffffffffffffffffffffff1681526020019081526020016000208381548110611a4a57611a496136fd565b5b9060005260206000209060070201600082015181600001556020820151816001019081611a77919061333d565b5060408201518160020160006101000a81548173ffffffffffffffffffffffffffffffffffffffff021916908373ffffffffffffffffffffffffffffffffffffffff16021790555060608201518160030160006101000a81548173ffffffffffffffffffffffffffffffffffffffff021916908373ffffffffffffffffffffffffffffffffffffffff1602179055506080820151816004015560a0820151816005015560c08201518160060160006101000a81548160ff021916908315150217905550905050600060036000856000015181526020019081526020016000206004015411611b9a576040517f08c379a0000000000000000000000000000000000000000000000000000000008152600401611b9190613886565b60405180910390fd5b6003600084600001518152602001908152602001600020600080820160009055600182016000611bca9190612484565b6002820160006101000a81549073ffffffffffffffffffffffffffffffffffffffff02191690556003820160006101000a81549073ffffffffffffffffffffffffffffffffffffffff0219169055600482016000905560058201600090556006820160006101000a81549060ff021916905550506040518060e001604052808281526020018981526020013373ffffffffffffffffffffffffffffffffffffffff1681526020018873ffffffffffffffffffffffffffffffffffffffff1681526020018781526020018681526020016000151581525060036000838152602001908152602001600020600082015181600001556020820151816001019081611cd2919061333d565b5060408201518160020160006101000a81548173ffffffffffffffffffffffffffffffffffffffff021916908373ffffffffffffffffffffffffffffffffffffffff16021790555060608201518160030160006101000a81548173ffffffffffffffffffffffffffffffffffffffff021916908373ffffffffffffffffffffffffffffffffffffffff1602179055506080820151816004015560a0820151816005015560c08201518160060160006101000a81548160ff0219169083151502179055509050508673ffffffffffffffffffffffffffffffffffffffff163373ffffffffffffffffffffffffffffffffffffffff167e80500dd3135b317a9964a886fc89087f9464cfbb755449e146ace57a1e0cf48a8989604051611df8939291906138a6565b60405180910390a3505050505050505050565b60603373ffffffffffffffffffffffffffffffffffffffff1660008054906101000a900473ffffffffffffffffffffffffffffffffffffffff1673ffffffffffffffffffffffffffffffffffffffff1614611e9b576040517ff7251ccf000000000000000000000000000000000000000000000000000000008152600401611e9290612fb4565b60405180910390fd5b6000611ea986868686610c64565b90506000600560008381526020019081526020016000206040518060e001604052908160008201548152602001600182018054611ee590613003565b80601f0160208091040260200160405190810160405280929190818152602001828054611f1190613003565b8015611f5e5780601f10611f3357610100808354040283529160200191611f5e565b820191906000526020600020905b815481529060010190602001808311611f4157829003601f168201915b505050505081526020016002820160009054906101000a900473ffffffffffffffffffffffffffffffffffffffff1673ffffffffffffffffffffffffffffffffffffffff1673ffffffffffffffffffffffffffffffffffffffff1681526020016003820160009054906101000a900473ffffffffffffffffffffffffffffffffffffffff1673ffffffffffffffffffffffffffffffffffffffff1673ffffffffffffffffffffffffffffffffffffffff16815260200160048201548152602001600582015481526020016006820160009054906101000a900460ff1615151515815250509050600060056000848152602001908152602001600020600401541161209d576040517f08c379a000000000000000000000000000000000000000000000000000000000815260040161209490613930565b60405180910390fd5b600a426120aa91906130cf565b600560008481526020019081526020016000206005015411612101576040517f08c379a00000000000000000000000000000000000000000000000000000000081526004016120f890613171565b60405180910390fd5b6202a3004261211091906130cf565b600560008481526020019081526020016000206005015410612167576040517f08c379a000000000000000000000000000000000000000000000000000000000815260040161215e9061399c565b60405180910390fd5b606085856040516121799291906139e1565b604051809103902083604051602001612193929190613a68565b60405160208183030381529060405290506000808973ffffffffffffffffffffffffffffffffffffffff168460800151846040516121d19190613ac5565b60006040518083038185875af1925050503d806000811461220e576040519150601f19603f3d011682016040523d82523d6000602084013e612213565b606091505b509150915081612258576040517f08c379a000000000000000000000000000000000000000000000000000000000815260040161224f90613b28565b60405180910390fd5b8973ffffffffffffffffffffffffffffffffffffffff16857fa7d0a908e9a681226c49f8746dd888d9324c460437a92654e38a466d23f217a86005600089815260200190815260200160002060030160009054906101000a900473ffffffffffffffffffffffffffffffffffffffff16600560008a815260200190815260200160002060040154600560008b81526020019081526020016000206005015460405161230593929190613b48565b60405180910390a3600560008681526020019081526020016000206000808201600090556001820160006123399190612484565b6002820160006101000a81549073ffffffffffffffffffffffffffffffffffffffff02191690556003820160006101000a81549073ffffffffffffffffffffffffffffffffffffffff0219169055600482016000905560058201600090556006820160006101000a81549060ff021916905550506123b56124c4565b93508095505050505050949350505050565b60008142109050919050565b60008273ffffffffffffffffffffffffffffffffffffffff16826040516123f9906135f9565b60006040518083038185875af1925050503d8060008114612436576040519150601f19603f3d011682016040523d82523d6000602084013e61243b565b606091505b505090508061247f576040517f08c379a00000000000000000000000000000000000000000000000000000000081526004016124769061365a565b60405180910390fd5b505050565b50805461249090613003565b6000825580601f106124a257506124c1565b601f0160209004906000526020600020908101906124c09190612532565b5b50565b6040518060e001604052806000801916815260200160608152602001600073ffffffffffffffffffffffffffffffffffffffff168152602001600073ffffffffffffffffffffffffffffffffffffffff16815260200160008152602001600081526020016000151581525090565b5b8082111561254b576000816000905550600101612533565b5090565b6000604051905090565b600080fd5b600080fd5b6000819050919050565b61257681612563565b811461258157600080fd5b50565b6000813590506125938161256d565b92915050565b6000602082840312156125af576125ae612559565b5b60006125bd84828501612584565b91505092915050565b60008115159050919050565b6125db816125c6565b82525050565b60006020820190506125f660008301846125d2565b92915050565b6000819050919050565b61260f816125fc565b82525050565b600060208201905061262a6000830184612606565b92915050565b600073ffffffffffffffffffffffffffffffffffffffff82169050919050565b600061265b82612630565b9050919050565b61266b81612650565b811461267657600080fd5b50565b60008135905061268881612662565b92915050565b600080fd5b600080fd5b600080fd5b60008083601f8401126126b3576126b261268e565b5b8235905067ffffffffffffffff8111156126d0576126cf612693565b5b6020830191508360018202830111156126ec576126eb612698565b5b9250929050565b6000806000806060858703121561270d5761270c612559565b5b600061271b87828801612679565b945050602061272c87828801612584565b935050604085013567ffffffffffffffff81111561274d5761274c61255e565b5b6127598782880161269d565b925092505092959194509250565b600081519050919050565b600082825260208201905092915050565b6000819050602082019050919050565b61279c81612563565b82525050565b600081519050919050565b600082825260208201905092915050565b60005b838110156127dc5780820151818401526020810190506127c1565b838111156127eb576000848401525b50505050565b6000601f19601f8301169050919050565b600061280d826127a2565b61281781856127ad565b93506128278185602086016127be565b612830816127f1565b840191505092915050565b61284481612650565b82525050565b612853816125fc565b82525050565b612862816125c6565b82525050565b600060e0830160008301516128806000860182612793565b50602083015184820360208601526128988282612802565b91505060408301516128ad604086018261283b565b5060608301516128c0606086018261283b565b5060808301516128d3608086018261284a565b5060a08301516128e660a086018261284a565b5060c08301516128f960c0860182612859565b508091505092915050565b60006129108383612868565b905092915050565b6000602082019050919050565b600061293082612767565b61293a8185612772565b93508360208202850161294c85612783565b8060005b8581101561298857848403895281516129698582612904565b945061297483612918565b925060208a01995050600181019050612950565b50829750879550505050505092915050565b600060208201905081810360008301526129b48184612925565b905092915050565b600082825260208201905092915050565b60006129d8826127a2565b6129e281856129bc565b93506129f28185602086016127be565b6129fb816127f1565b840191505092915050565b60006020820190508181036000830152612a2081846129cd565b905092915050565b612a3181612563565b82525050565b6000602082019050612a4c6000830184612a28565b92915050565b612a5b81612650565b82525050565b6000602082019050612a766000830184612a52565b92915050565b600080fd5b7f4e487b7100000000000000000000000000000000000000000000000000000000600052604160045260246000fd5b612ab9826127f1565b810181811067ffffffffffffffff82111715612ad857612ad7612a81565b5b80604052505050565b6000612aeb61254f565b9050612af78282612ab0565b919050565b600067ffffffffffffffff821115612b1757612b16612a81565b5b612b20826127f1565b9050602081019050919050565b82818337600083830152505050565b6000612b4f612b4a84612afc565b612ae1565b905082815260208101848484011115612b6b57612b6a612a7c565b5b612b76848285612b2d565b509392505050565b600082601f830112612b9357612b9261268e565b5b8135612ba3848260208601612b3c565b91505092915050565b612bb5816125fc565b8114612bc057600080fd5b50565b600081359050612bd281612bac565b92915050565b60008060008060808587031215612bf257612bf1612559565b5b600085013567ffffffffffffffff811115612c1057612c0f61255e565b5b612c1c87828801612b7e565b9450506020612c2d87828801612679565b9350506040612c3e87828801612bc3565b9250506060612c4f87828801612bc3565b91505092959194509250565b600080600080600060a08688031215612c7757612c76612559565b5b600086013567ffffffffffffffff811115612c9557612c9461255e565b5b612ca188828901612b7e565b9550506020612cb288828901612679565b9450506040612cc388828901612679565b9350506060612cd488828901612bc3565b9250506080612ce588828901612bc3565b9150509295509295909350565b600060e083016000830151612d0a6000860182612793565b5060208301518482036020860152612d228282612802565b9150506040830151612d37604086018261283b565b506060830151612d4a606086018261283b565b506080830151612d5d608086018261284a565b5060a0830151612d7060a086018261284a565b5060c0830151612d8360c0860182612859565b508091505092915050565b60006040820190508181036000830152612da88185612cf2565b9050612db76020830184612606565b9392505050565b600060e082019050612dd3600083018a612a28565b8181036020830152612de581896129cd565b9050612df46040830188612a52565b612e016060830187612a52565b612e0e6080830186612606565b612e1b60a0830185612606565b612e2860c08301846125d2565b98975050505050505050565b600080600080600060a08688031215612e5057612e4f612559565b5b6000612e5e88828901612584565b955050602086013567ffffffffffffffff811115612e7f57612e7e61255e565b5b612e8b88828901612b7e565b9450506040612e9c88828901612679565b9350506060612ead88828901612bc3565b9250506080612ebe88828901612bc3565b9150509295509295909350565b600081519050919050565b600082825260208201905092915050565b6000612ef282612ecb565b612efc8185612ed6565b9350612f0c8185602086016127be565b612f15816127f1565b840191505092915050565b60006020820190508181036000830152612f3a8184612ee7565b905092915050565b7f4f6e6c79204f776e65722063616e206578656375746520746869732066756e6360008201527f74696f6e00000000000000000000000000000000000000000000000000000000602082015250565b6000612f9e6024836129bc565b9150612fa982612f42565b604082019050919050565b60006020820190508181036000830152612fcd81612f91565b9050919050565b7f4e487b7100000000000000000000000000000000000000000000000000000000600052602260045260246000fd5b6000600282049050600182168061301b57607f821691505b60208210810361302e5761302d612fd4565b5b50919050565b7f416c72656164795175657565644572726f720000000000000000000000000000600082015250565b600061306a6012836129bc565b915061307582613034565b602082019050919050565b600060208201905081810360008301526130998161305d565b9050919050565b7f4e487b7100000000000000000000000000000000000000000000000000000000600052601160045260246000fd5b60006130da826125fc565b91506130e5836125fc565b9250827fffffffffffffffffffffffffffffffffffffffffffffffffffffffffffffffff0382111561311a576131196130a0565b5b828201905092915050565b7f54696d657374616d704e6f74496e52616e67654572726f720000000000000000600082015250565b600061315b6018836129bc565b915061316682613125565b602082019050919050565b6000602082019050818103600083015261318a8161314e565b9050919050565b60008190508160005260206000209050919050565b60006020601f8301049050919050565b600082821b905092915050565b6000600883026131f37fffffffffffffffffffffffffffffffffffffffffffffffffffffffffffffffff826131b6565b6131fd86836131b6565b95508019841693508086168417925050509392505050565b6000819050919050565b600061323a613235613230846125fc565b613215565b6125fc565b9050919050565b6000819050919050565b6132548361321f565b61326861326082613241565b8484546131c3565b825550505050565b600090565b61327d613270565b61328881848461324b565b505050565b5b818110156132ac576132a1600082613275565b60018101905061328e565b5050565b601f8211156132f1576132c281613191565b6132cb846131a6565b810160208510156132da578190505b6132ee6132e6856131a6565b83018261328d565b50505b505050565b600082821c905092915050565b6000613314600019846008026132f6565b1980831691505092915050565b600061332d8383613303565b9150826002028217905092915050565b613346826127a2565b67ffffffffffffffff81111561335f5761335e612a81565b5b6133698254613003565b6133748282856132b0565b600060209050601f8311600181146133a75760008415613395578287015190505b61339f8582613321565b865550613407565b601f1984166133b586613191565b60005b828110156133dd578489015182556001820191506020850194506020810190506133b8565b868310156133fa57848901516133f6601f891682613303565b8355505b6001600288020188555050505b505050505050565b600061341b83856129bc565b9350613428838584612b2d565b613431836127f1565b840190509392505050565b60006080820190506134516000830188612a52565b61345e6020830187612606565b818103604083015261347181858761340f565b90506134806060830184612606565b9695505050505050565b600060608201905061349f6000830187612a52565b6134ac6020830186612a28565b81810360408301526134bf81848661340f565b905095945050505050565b7f5468652074696d656c6f636b20706572696f642068617320746f20626520696e60008201527f2074686520667574757265000000000000000000000000000000000000000000602082015250565b6000613526602b836129bc565b9150613531826134ca565b604082019050919050565b6000602082019050818103600083015261355581613519565b9050919050565b7f42616c616e6365206973206c6f772e20416464206d6f72652066756e64730000600082015250565b6000613592601e836129bc565b915061359d8261355c565b602082019050919050565b600060208201905081810360008301526135c181613585565b9050919050565b600081905092915050565b50565b60006135e36000836135c8565b91506135ee826135d3565b600082019050919050565b6000613604826135d6565b9150819050919050565b7f4661696c656420746f2073656e64204574686572000000000000000000000000600082015250565b60006136446014836129bc565b915061364f8261360e565b602082019050919050565b6000602082019050818103600083015261367381613637565b9050919050565b600060408201905061368f6000830185612606565b61369c6020830184612606565b9392505050565b600060a08201905081810360008301526136bd81886129cd565b90506136cc6020830187612a52565b6136d96040830186612a52565b6136e66060830185612606565b6136f36080830184612606565b9695505050505050565b7f4e487b7100000000000000000000000000000000000000000000000000000000600052603260045260246000fd5b6000613737826125fc565b91507fffffffffffffffffffffffffffffffffffffffffffffffffffffffffffffffff8203613769576137686130a0565b5b600182019050919050565b600061377f826125fc565b915061378a836125fc565b92508282101561379d5761379c6130a0565b5b828203905092915050565b7f42616c616e6365206c6f772e20546f70757020796f7572206163636f756e7400600082015250565b60006137de601f836129bc565b91506137e9826137a8565b602082019050919050565b6000602082019050818103600083015261380d816137d1565b9050919050565b7f5468657265206973206e6f206465706f736974206173736f636961746564207760008201527f6974682074686973206964000000000000000000000000000000000000000000602082015250565b6000613870602b836129bc565b915061387b82613814565b604082019050919050565b6000602082019050818103600083015261389f81613863565b9050919050565b600060608201905081810360008301526138c081866129cd565b90506138cf6020830185612606565b6138dc6040830184612606565b949350505050565b7f4e6f745175657565644572726f72000000000000000000000000000000000000600082015250565b600061391a600e836129bc565b9150613925826138e4565b602082019050919050565b600060208201905081810360008301526139498161390d565b9050919050565b7f54696d657374616d70457870697265644572726f720000000000000000000000600082015250565b60006139866015836129bc565b915061399182613950565b602082019050919050565b600060208201905081810360008301526139b581613979565b9050919050565b60006139c883856135c8565b93506139d5838584612b2d565b82840190509392505050565b60006139ee8284866139bc565b91508190509392505050565b60007fffffffff0000000000000000000000000000000000000000000000000000000082169050919050565b6000819050919050565b613a41613a3c826139fa565b613a26565b82525050565b6000819050919050565b613a62613a5d82612563565b613a47565b82525050565b6000613a748285613a30565b600482019150613a848284613a51565b6020820191508190509392505050565b6000613a9f82612ecb565b613aa981856135c8565b9350613ab98185602086016127be565b80840191505092915050565b6000613ad18284613a94565b915081905092915050565b7f54784661696c65644572726f7200000000000000000000000000000000000000600082015250565b6000613b12600d836129bc565b9150613b1d82613adc565b602082019050919050565b60006020820190508181036000830152613b4181613b05565b9050919050565b6000606082019050613b5d6000830186612a52565b613b6a6020830185612606565b613b776040830184612606565b94935050505056fea2646970667358221220b25c50a8a0e82ce1a8ae9dd7d00e50dd161eccbcd00da2fad276bc5df2fb145d64736f6c634300080f0033a2646970667358221220aab81fdb9a09ccb052a6e66fa5fb3243e4f72c87f1c4c02c41c8dcd5e224427764736f6c634300080f0033",
  "immutableReferences": {},
  "source": "// SPDX-License-Identifier: MIT\npragma solidity >=0.4.22 <0.9.0;\n\nimport \"./Timelock.sol\";\n\ncontract TimelockFactory {\n    Timelock timelock;\n    address public owner;\n\n    mapping(address => address[]) wallets;\n\n    // Modifiers\n    modifier onlyTimelock() {\n        require(\n            msg.sender == address(timelock),\n            \"Only Timelock can access this resource\"\n        );\n        _;\n    }\n\n    // Events\n\n    event WalletCreatedEvent(\n        address indexed _wallet,\n        address indexed _owner,\n        string _description,\n        uint256 _createdAt\n    );\n\n    constructor(address payable _timelockContractAddress) {\n        timelock = Timelock(_timelockContractAddress);\n        owner = msg.sender;\n    }\n\n    // Enables contract to receive funds\n    receive() external payable {}\n\n    function getWalletsByUser(address _user)\n        internal\n        view\n        returns (address[] memory)\n    {\n        return wallets[_user];\n    }\n\n    function getWallets() public view returns (address[] memory) {\n        return wallets[msg.sender];\n    }\n\n    function newTimeLockedWallet(string memory _description)\n        public\n        returns (address)\n    {\n        address wallet = address(new Timelock(_description, msg.sender));\n        wallets[msg.sender].push(wallet);\n\n        emit WalletCreatedEvent(\n            wallet,\n            msg.sender,\n            _description,\n            block.timestamp\n        );\n        return wallet;\n    }\n\n    function transferFunds(bytes32 _txId) external onlyTimelock {\n        (\n            bytes32 depositId,\n            string memory description,\n            address from,\n            address to,\n            uint256 amount,\n            uint256 timestamp,\n            bool claimed\n        ) = timelock.queued2(_txId);\n        (bool sent, ) = payable(to).call{value: amount}(\"\");\n        require(sent, \"Failed to send Ether\");\n    }\n}\n",
  "sourcePath": "/Users/chris/Downloads/Projects/Business/timelock/contracts/TimelockFactory.sol",
  "compiler": {
    "name": "solc",
    "version": "0.8.15+commit.e14f2714.Emscripten.clang"
  },
  "schemaVersion": "3.4.8",
  "updatedAt": "2022-11-17T23:08:41.948Z",
  "devdoc": {
    "kind": "dev",
    "methods": {},
    "version": 1
  },
  "userdoc": {
    "kind": "user",
    "methods": {},
    "version": 1
  }
}